:020000042000DA
:1000000000980020B9040020C1040020D904002079
:1000100000000000000000000000000000000000E0
:10002000000000000000000000000000F1040020BB
:100030000000000000000000090500200B05002062
:100040000B4400207B4500200D3103006945002052
:10005000A94400208D310300A3450020AB450020BA
:100060000D0500204B36002017460020AD3103005F
:1000700057810200D93100200D0500200D05002018
:100080000D0500200D0500200D050020F92D002094
:10009000032E00200D2E0020172E0020212E0020E0
:020000042000DA
:1001600032000000C7050020611F0020A1470020C9
:10017000000000000000000063800200BD8002005B
:10018000B3110020FB8002001981020035810200BA
:100190005D81020011430020A1050020051100200F
:1001A0002D11002000000000000000003F000000B2
:1001B000F48B002000040000740B080048010000CC
:1001C0006807080000040000C80C080020050000B3
:1001D000000000002000000048000000580000005F
:1001E0006800000004010000160100002801000062
:1001F0002E010000202A00008E2E000001000000C9
:100200008813000041200020E9600200FD930200F5
:100210007719002019280300A5740200953F0020DB
:1002200003000000D5200200A947002004000000C0
:10023000D74902000F490200831D020063910200AA
:10024000B7910200BF910200078202007182020092
:1002500038610020AD8302009384020041850200D2
:1002600015860200378602005F860200758602004E
:10027000F9870200258902005D8A0200D38C020002
:10028000098D02000F900200438D0200278E0200AC
:10029000F98E0200478F0200E10F0020D58F020087
:1002A00049510200775102002F5202001000000055
:1002B00020030000803E000000000000000000005D
:020000042000DA
:1002C000504600030003983A6400F401B80B000C98
:1002D000B80B120030003000CD009A01120024004B
:1002E00030006400B0001800280012001200D0078F
:1002F0000000FFFF00000000000000000000000000
:100300001F000002444131343538302D30310000B7
:1003100000000000000000000000000000000000DD
:0403200000000000D9
:020000042000DA
:10034000FFFF010000C201000000000000000000EB
:100350000000F4010100011B0A071AFF4C000215FE
:10036000C72C49D7C1035F8A082214E7AE986E9F55
:1003700000010003C5000000000009FF00605257A3
:100380002D424C450000000000000000000000006D
:100390000000000000000000000044413134353806
:1003A00078000000000000000000000000000000D5
:1003B000000000000000000000000000000000003D
:1003C000000000000000000000000000000000002D
:1003D00000000000000000000E4E38C5EAB3140013
:0403E000064064323D
:020000042000DA
:100440000348854605F0BCFB00480047C720020072
:100450000098002010B50620134B188008200123B7
:100460008340124C236000BF114880683E239843AC
:100470002E300F4B9860002005231B07188018466C
:10048000008A0F231B029843C01805231B071882FC
:100490000122D204074902E0002001C2491E0029BE
:1004A000FADA62B610BD00000034005080E100E0CE
:1004B00000330050FF0B00001548804715480047E7
:1004C00004207146084203D0EFF30980124908471F
:1004D000EFF308801049084704207146084203D012
:1004E000EFF309800D490847EFF308800B490847EF
:1004F00004207146084203D0EFF3098008490847F9
:10050000EFF3088006490847FEE7FEE7FEE7000034
:100510005504002041040020FD0A0020250500208C
:100520005714002005210907498A80229143803110
:10053000052212075182184A016811604168516012
:1005400081689160C168D16001691161416951613F
:1005500081699161C169D161114608620F49896A57
:1005600051620E49C96A91620C49096BD1620B490B
:10057000C96B11630949496B51630849896B9163E0
:1005800005210907898A20221140202901D100BEB6
:1005900001E000BFFEE770470018080000ED00E032
:1005A00010B5E4480021016000F014FD0020012195
:1005B0008907096B49004908C207114301229207C4
:1005C000116300BF10BD1CB50120DB490870082075
:1005D000DA49088005F006FB01F0F8FDFF21013142
:1005E0000D20800105F004FB03F0F0FC00F08FFB10
:1005F000D3480078D2490870D2480078D1490870B1
:10060000012005F0FBFA01F0E3FB00F0B3FB04204E
:1006100000F088F9072000F085F90A2000F082F93F
:10062000062000F07FF90B2000F07CF9012000F09B
:1006300079F9022000F076F9002000F073F9C24841
:10064000006805F0E1FA00F0E5FE01F07AFB012018
:1006500080070068FF210131884340188905086040
:1006600000F0E0FD00F095F9B8480068AA2800D134
:1006700000BF00BF142000F04BFC142000F05BFC16
:1006800004F09AFBFFF78CFF002005210907C882C0
:10069000AF484088E0218843A030AD494880012020
:1006A00005F0B8FA3DE105200007008980210840E7
:1006B000C01100282FD0C805006B09020840C00BEC
:1006C000002828D105F0ACFAC007C00F002822D1BD
:1006D000042005F0ABFA044605F0AEFA002C13D066
:1006E0000020009099480068AA2800D100BF00BFF0
:1006F000142000F020FC0421684605F0A3FA00282D
:1007000001D000F080FC00BF00BF002000BF002827
:1007100000D006E100BF00BF002000BF002800D0CD
:10072000FFE072B600BF00BF03F0A1FC0190694674
:100730000879042808D187480078012802D10220CE
:10074000019001E00320019068460079022803D05F
:100750006846007903287AD105200007008A042121
:100760008843001D0521090708827B48C0690128CC
:1007700017D968460079032810D105F069FA0028D6
:100780000CD005F06BFA002808D0032005F06CFAB5
:10079000002803D002207149087010E00220019067
:1007A0000DE068460079032807D105F05DFA0028BE
:1007B00003D001206949087001E00220019000BFC8
:1007C00000BF68460079022803D0684600790328F4
:1007D00057D1634800690421084361490861052035
:1007E0000007408A202188430521090748820846DE
:1007F000008A02218843801C052109070882684677
:10080000007902280FD10846408A04218843001D40
:100810000521090748820846408A1021884305219E
:10082000090748822DE005200007408A04218843FB
:10083000001D0521090748827F2080010988802248
:1008400091438031052212071180002102E061E00E
:100850004A1CD1B20A29FBDB05210907498A10226B
:1008600091431031052212075182411E3D4A5161C8
:10087000052109070988802291430522120711806A
:1008800000BF00203849087000BF00BF68460079EB
:10089000022803D068460079032830D12C484088CC
:1008A000FF21013188432A494880052000074088FC
:1008B0002E4908802648408840084000401C2449B2
:1008C00048800020009002E00098401C00900098B2
:1008D0001428F9DB05200007408980088000401CAF
:1008E00005210907488100BF0520000740894021F4
:1008F00008400028F8D0002005210907488030BFB3
:100900006946087900BF16480069042188431449E4
:10091000086104E068460079012800D130BF62B662
:1009200000BFC0E6C206D20E01219140104A1160FC
:10093000704700008C030800008000200033005046
:1009400000000800202A08000490002008800020F1
:100950002000005054020800E0010020C4060800F6
:1009600000ED00E000800040728000206E800020DA
:1009700080E200E07047000058480078002804D169
:10098000574908705749C87002E0802056490870DE
:10099000704752480078002805D10120504908705E
:1009A0005049C87002E081204F49087070474B4899
:1009B0000078002806D102204949087001204949E1
:1009C000C87002E0822048490870704700B5474867
:1009D0000078002804DD45480078401E434908702F
:1009E00042480078002800DD00BD3F48007800281C
:1009F00009D03D4800788007800F384908700020F2
:100A00003949087008E035480078002804D0334898
:100A10000078401E314908703048027800202F4984
:100A20000870002A04D0012A03D0022A07D103E06B
:100A300006E0FFF7AEFF03E0FFF7B9FF00E000BFFD
:100A400000BF00BFD0E710B528480078401C2749F8
:100A5000087022480078002808D105F00BF90446F8
:100A6000601CC4B2FFF788FF1C48047010BD012051
:100A70001F490870704700201D49087070471C48C6
:100A800000787047002100BF00BFEFF310800246DE
:100A9000012080F3108800BF052000070089802313
:100AA0001840C011002807D11248008940084000B2
:100AB000401C104B18810121002A04D1002080F332
:100AC000108800BF04E0012080F3108800BF00BF41
:100AD00000BF084670470848007870470180002032
:100AE00054020800C606080002800020038000208F
:100AF00004800020003300506C800020052109078D
:100B0000098A04229143091D052212071182114608
:100B1000098A02229143891C05221207118211467B
:100B20000989402291434031052212071181002199
:100B300001228A401F4B1A6000BF08211E4A118003
:100B40005905498A8022914380315A0551821B4AB6
:100B5000016811614168516181689161C168D16129
:100B6000016911624169516281699162C169D16211
:100B7000114608631249896A51631149C96A916330
:100B80000F49096BD1630E49C96B0C4A40321160A1
:100B90000B49496B51600A49896B91605905898AF3
:100BA00020221140202901D100BE01E000BFFEE754
:100BB0007047000080E200E0003300504018080059
:100BC00000ED00E066480068002802D00020C04325
:100BD00000E001206249086008460068C117614BC7
:100BE0001A685B68104319435E4A106051605C48A4
:100BF000C068002802D00020C04300E0012058490E
:100C0000C8600846C068C117420FC9001143C00040
:100C1000544A1368526818431143524A1060516095
:100C20004F484069002802D00020C04300E0012066
:100C30004B49486108464069C117C20E490111433A
:100C40004001484B1A685B6810431943454A1060DD
:100C5000516043488069002802D00020C04300E072
:100C600001203F49886108468169C8178A0E8001C2
:100C7000104389013B4B1A685B6811431843394A9A
:100C8000116050603648C06A002802D00021C94374
:100C900000E001213248C162C16AC81749184041C9
:100CA0000A0C0004104309042E4A136852681943C1
:100CB00010432C4A11605060704708B5002007238C
:100CC000032212020146009001F068FB0120082374
:100CD0000322120203210090002001F05FFB00209C
:100CE000052302461946009001F058FB0020062318
:100CF000DA011946009001F051FB00200346FF2263
:100D0000013201210090084601F048FB08BD10B5F2
:100D100005200007008A022188430521090708826F
:100D200000BF05200007808A082108400028F8D06D
:100D30000D4840884901884340180B49488000F01D
:100D400097FBFFF7BAFF04F0D7FA05200007408AA7
:100D500020218843203005210907488210BD00006A
:100D600020900020C090002020000050AA20F949C7
:100D70000860704700B505200007008930218843CE
:100D800005210907088108460089802188438030B1
:100D90000521090708810846008980088000401C59
:100DA0000881084600890821884308300521090781
:100DB0000881E9480088802188438030E64908801E
:100DC00005200007408A0821884305210907488239
:100DD00008460089402188434030052109070881E1
:100DE0000846008A0421884305210907088200BFBC
:100DF00005200007808A022108400028F8D0FFF76C
:100E0000B5FFD4480068002800D100BF00BFD1481A
:100E10000068AA2800D100BF00BFCF488088F02119
:100E20008843B030CC498880084680880321090275
:100E30008843FF300130C84988800846808800090F
:100E40000001888008468088490188434018C249CB
:100E5000888008468088890188434018BE49888078
:100E600008468088C90188434018BB49888005200E
:100E70000007408A08218843052109074882B648AF
:100E8000008840084000B449088008460088802156
:100E90008843B14908800520000700894021884324
:100EA000052109070881AC48408901214902084011
:100EB0004012002803D00520A74960318880012016
:100EC00080070068FF210131884389050860A34835
:100ED00000683F21490288430121490340189F4986
:100EE0000860084600680903884340189B49086069
:100EF00000BD032109029A4A9181082151800020F6
:100F000000E0401C9628FCD30821954A9180704748
:100F100094494880098889088900C91C914A118030
:100F20001146098804229143091D8E4A118001212E
:100F30008D4A11707047F0B587B004468A48007832
:100F4000002845D000BF00BF864800880421084023
:100F500080100028F8D18348C08805908148808897
:100F60000490059800040499401803907F49614358
:100F70000846039904F084FE029000207A49087024
:100F80007B4902980860029804F08DFD07463946B7
:100F9000784804F04AFD06468921C90504F008FD99
:100FA000054604F087FD744908607148006804F044
:100FB0007AFD074604F092FD704A714B0191009052
:100FC00004F064FE054604F09DFD6E49086000BF14
:100FD00007B0F0BD10B56C4C204604F05DFE10BDAE
:100FE00070B55D4840881E210840451004F05AFE47
:100FF0000446594840881E218843690008435649E1
:101000004880204670BDF8B50020009000BF012048
:101010005E49C86300BF00BF00BF00BF5B48C06B34
:101020000028FAD100BF01208007C46900BF5848DA
:101030000068844202D200205549086000980028C8
:1010400012D0002000905248046004F031FE514953
:101050000880012004F032FE04F036FE0646002E21
:1010600001D101200090F8BD49480068201A1921DB
:10107000C90188421FD34648046004F019FE0546A2
:10108000444909888D4204DD42480088281A87B205
:1010900003E040480088401B87B2182F0BDB3D4817
:1010A0000580012004F00AFE04F00EFE0646002E24
:1010B00001D10120009000BFD5E738B504462C4986
:1010C000096861430846344904F0DAFD009000984D
:1010D00038BDF8B504460120C00384420BD3204636
:1010E0002549096804F0FAFF05460E46B205A80A2C
:1010F0001043009004E0204800686043800A00909C
:101100000098F8BD38B5044612480068002800D1A0
:1011100000BF00BF0F480068AA2800D100BF00BF71
:101120002046FFF7CAFF0090009838BD38B5044646
:1011300008480068002800D100BF00BF05480068CB
:10114000AA2800D100BF00BF2046FFF7C2FF0090D1
:10115000009838BD088000202000005000020040A8
:101160002030005000160050108000200024F400B1
:101170000C80002000247449148000207B14AE47AA
:10118000E17A443F18800020E2040000C0000040E3
:101190007C0408007804080040420F0000BF6D493D
:1011A0004869C107C90F002901D1012070470020FB
:1011B000FCE738B5012400BF00BF664948694021FB
:1011C00001408909002907D000BF624948692021F0
:1011D00001404909002901D1002414E000205D49A3
:1011E0000861009002E00098401C0090FF215F31F0
:1011F00000988842F7D3FFF7D1FF002802D104F00E
:1012000069FD002400BF00BF204638BD10B502466E
:10121000D3009633CC0082341B1996331846FF3026
:10122000C33010BD1FB50024684602F050F9009C81
:10123000204604F0E3FC1FBD70B500254648007849
:10124000002836D000BF01204449C86300BF00BF5A
:1012500000BF00BF4148C06B0028FAD100BF012089
:101260008007C46900BF3E480068844201D201255E
:101270001EE000203849087004F0FCFC022803D06E
:1012800004F0F8FC012812D108203649088000BF7C
:1012900005200007808A202108402028F8D005205A
:1012A0000007408A802188430521090748820025DC
:1012B00000BF284670BD0020704708B52A494988FC
:1012C00049084900491C284A51800021009102E048
:1012D0000099491C009100991429F9DB052109079F
:1012E000498989088900491C05221207518100BFDC
:1012F000052109074989402211400029F8D005211C
:101300000907498904229143091D052212075181C9
:1013100011464880498904229143052212075181D0
:1013200000BF05210907898A802211400029F8D0D1
:101330000521090749898908890005221207518179
:1013400000BF052109074989802211400029F8D0F2
:1013500008BD00000010005000800020C0000040C8
:10136000B06600200033005020000050FFB583B06D
:101370000D46687802902C78002004F0B1FC0746F6
:10138000042F40D0002F3ED037E000BF7248816E5E
:101390002E2060430818064630790007000F0190A0
:1013A0000198030004F0A2FC070506081E091E07A9
:1013B0001E0000BF00BF00BF00BF00BFB0883F21BC
:1013C00009020140091206290CDA6878012805D1C2
:1013D000204604F091FC002007B0F0BDB088072142
:1013E0000843B0802146481CC217520F1218D21071
:1013F000D200821AD2B2144600BF0298411EC9B26E
:1014000002910028C1D12946069B059A039804F051
:1014100079FCE1E730B551490B1F1A7800200AE04A
:10142000C300CB5C002B04D14D4CC5004B4BEB18DB
:101430005C60431CD8B29042F2DB30BD30B502464E
:1014400093688C68181B80B2464DA84201D90120D0
:1014500030BD0020FCE78269203A917F082904D240
:101460008A00414B9A58826101E000BFFEE7704755
:1014700010B53E483E4908613E4848613E48886193
:101480003E48C8613E4808623E4848623E4888621D
:101490003E48C8623E4808633E4848633E48886309
:1014A0003E48C8633C485C303149403108603C48A4
:1014B00048603C4888603C48C860C016C206D20EEE
:1014C00001219140394A116000BF002100F00BF862
:1014D0000420C043C206D20E01219140334A803A13
:1014E000116000BF10BD10B5002819DA304A03079B
:1014F0001B0F083B9B089B00D2588307DC0EFF2381
:10150000A3409A438B071B0E8407E40EA3401A43A3
:10151000274B0407240F083CA408A4001A511AE022
:10152000224A803A03231B02D21883089B00D25818
:101530008307DC0EFF23A3409A438B071B0E84070F
:10154000E40EA3401A43194B803B032424021B19C9
:101550008408A4001A5110BDD8020800080608002B
:1015600088620020307500009862002094270300F4
:101570000084004062B600DF28A30200704701DF4C
:101580001CCA0200F8BD02DF40CB0200F5E703DF12
:1015900084D4020004DF89B0BC330200F8BD05DF4B
:1015A000F8BD06DFEC0C030070BD07DF80E100E052
:1015B0001CED00E070B516460D46104604F090FB99
:1015C000002869D0340A304604F08AFB012812D082
:1015D000A87A1E2811D029460A310E2845D019DCD8
:1015E000801E030004F082FB0B255829582D58312A
:1015F0005839583D5800022070BD3146274804F044
:1016000087FB0021204604F089FB0221304604F0CC
:101610008BFB41E018283CD006DC102819D012289A
:101620002BD0162838D130E0522822D0D22833D1FE
:1016300027E0204604F07EFB2EE0204604F080FBED
:101640002AE0204604F082FB26E0204604F084FBDA
:1016500022E0204604F086FB1EE0204604F088FBD2
:101660001AE0204604F08AFB16E0204604F08CFBCA
:1016700012E0204604F08EFB0EE0204604F090FBC2
:101680000AE0204604F092FB06E0204604F094FBBA
:1016900002E0204604F096FB002070BD0128000007
:1016A000F8B50D46064681002B48EA884458521C7E
:1016B00020686B89018F294F5143009101464031C9
:1016C0004A89C989511A8AB2991A89B2B94214D27F
:1016D0009A4212D0294604F07BFB2D8920490098BC
:1016E00004F0CEFA2818801C4034E0823002401CFE
:1016F00080B2042104F018FBF8BD2821304604F024
:101700006DFBF8BDF8B50546870013480C46C05977
:10171000C9880068114E024640325389D2899A1A0C
:1017200092B28B1A9BB2B34211D20B4E8A420ED0A8
:1017300004F05AFBF05905225F30611C04F05AFB9B
:101740002802401C80B2052104F0EEFAF8BD2821E1
:10175000284604F043FBF8BD4C030800FF7F00005F
:101760001027000070B50446007800250D2801D030
:101770000A2200E002225A494B7A002B06D00D289B
:1017800004D0637C032B01D0432551E0097A8A43BE
:1017900039D10D2809D00E2802D00F2803D134E00A
:1017A000607C032804D3402542E0607C0328FAD8FB
:1017B000A07C0428F7D20A2908D0607C012822D016
:1017C000022820D06078032809D811E004F018FB23
:1017D000012806D16078032803D0002801D04925CC
:1017E00026E004F00DFB002802D160780228F6D82C
:1017F0003020035D22462046E17C3132143000F077
:1018000019F8054614E0422512E004F0F9FA01281F
:1018100007D16078052804D1A01D04F0F7FA00284C
:10182000DDD004F0EDFA002802D160780228D6D885
:10183000284670BDFFB5002086B001216A461170B0
:10184000044605910021002C06D0089D099A1F230B
:101850009A4234D9402032E01C23069D079AF7E7CC
:101860006B185E78330004F041FA1D26101010103A
:101870001010101010262626262626262626262676
:1018800026261010101010102600059B03E06F464E
:10189000FF5CB74204D05B1E5BB2002BF7DA03E0BB
:1018A000002B01DB4A2006E0059B6F46FE54059B9A
:1018B0005B1CDBB205936B5C491C5918C9B29142A1
:1018C00001D20028CCD0914202D04A200AB0F0BD0B
:1018D000641CE4B2022CF9D20028B3D0F6E7000071
:1018E0009805080070B5EFF31085012080F310888B
:1018F000264804F091FA0446002D1DD0012080F303
:101900001088002C23D020462038C08B20498842E4
:101910001DD16189208904F085FA05000ED0214689
:101920001031A38962892089A847002806D00128A0
:101930000DD002280BD105E00020E0E7204604F09E
:1019400077FA04E0114821460C3004F077FAEFF3FF
:101950001084012080F310880C480068002802D110
:10196000012004F071FA002C03D0012080F31088CC
:1019700070BD0020FAE710B5BC21064804F06AFAF1
:101980000549012004F06CFA10BD0000A80508000C
:101990003883000004060800E5180020F3B581B084
:1019A00001980C460102CA1D0E310223344804F08E
:1019B0005DFA047001990546022732488E00002C1A
:1019C00006D0042C16D0062C10D0072C3FD108E0EE
:1019D000815905224968897C114069708059C77313
:1019E00035E0084604F048FA687030E080590F216D
:1019F000C1732CE0044680594068417C012902D122
:101A0000007E01280FD0019804F03CFA0121002843
:101A1000A0590BD04268D07D00281CD001281AD0D4
:101A200004280DD00FE0002068700DE04068C27DF2
:101A3000022A01D0042A06D1007C02280BD102E040
:101A4000107C022807D06F70A1590320C873284664
:101A500004F01EFAFEBD6970F6E701460A7801201F
:101A6000042A01D9002070474A78002A01D0012AAF
:101A7000F8D10A79082AF5D849790829F2D87047A7
:101A8000021C000028050800FFB589B00D460020A3
:101A90006946059008720B98000A009004F0F2F96C
:101AA00007460B9804F01CF900287DD00B98297884
:101AB000000A8400784E012963D0042904D0062945
:101AC00048D0072968D125E03059C17B032901D0CE
:101AD000042961D1697800291AD040681022A91C14
:101AE00004F088F9002F06D03159C87B032807D0AD
:101AF000042808D050E03059C07B032803D04BE0C5
:101B00000B20C87348E00521009804F0C7F943E0B2
:101B10000120B6E03059C07B0E283DD1009804F07A
:101B2000ABF9002103E02A18401C9170C0B21028C4
:101B3000F9D3688A69460883294606A80822143121
:101B4000023004F057F906ABAA1C3946009804F09D
:101B5000ABF921E03059C07B0F281DD1AA1C0A2106
:101B6000009804F0A7F9002F04D03946009804F03B
:101B7000A7F911E000231A463946009804F0A6F9A7
:101B80000AE0012F08D10B9804F0AAF801281CD014
:101B9000002801D0022005906846007A002811D064
:101BA00002AA0521009800E00CE004F083F96846E1
:101BB000027A602002436846027201233946009887
:101BC00004F084F905980DB0F0BD3059C07B0228AF
:101BD000E2D16878002851D002210B9804F0A4F8D3
:101BE000305907224068A91C173004F003F9E8783F
:101BF000002804D130594068407C01283AD0009830
:101C000004F06AF9002837D0297A009804F06AF9BC
:101C1000002833D0009804F06BF90121009804F0FB
:101C20006DF900282CD030594068417E00292BD016
:101C3000042929D0C17E027D1140C1763059406807
:101C4000017F427D114001776846007A0028A7D1C4
:101C50003059022142680098173204F02BF93059AC
:101C600041684031897B002913D004210098FFF797
:101C700095FE91E7022004E0062002E0082000E043
:101C80000320694608728BE70021C176305940680D
:101C9000D9E70B21C1737FE72805080010B50C4672
:101CA00004F032F921888A002F49895809680029EF
:101CB00002D02E4BC968995010BD10B5144604F0DF
:101CC00029F9210A8A00284989580968002902D07F
:101CD000264BC968995010BDFFB50F461546110A2D
:101CE000214A8800125881B012681E46002A01D08D
:101CF000D46803E01D4A002314581350002C18D058
:101D0000201F42881A4B9A4213D10088602810D1B4
:101D10002046403002898A420BD18088002808D0B2
:101D2000A068002802D0204604F0FAF8204604F00B
:101D3000FDF833462A463946019804F0FDF805B00F
:101D4000F0BD70B50B480378021D00210A4D07E075
:101D5000CC00165D012E01D12418A560491CC9B222
:101D60009942F5D370BD00004C0308001C80002090
:101D70003883000004060800B06400201349498835
:101D800007225202914342021143104A5180704788
:101D900005200007008830218843303005210907DD
:101DA00008800846008880088000C01C08807047B2
:101DB0000520000700883021884305210907088095
:101DC0000846008880088000088070478000005026
:101DD000D249D348CA05128880239A438032CB0562
:101DE0001A8000BFCF4A528908231A40082A03D01C
:101DF0000A46491E002AF5D10122CB4B1A600288FF
:101E0000CA4B1A80801C0288C94B1A80052212070F
:101E1000128880239A4305231B071A8070470146C6
:101E20000020704770477047704702460020704797
:101E300000BF01218907096B0622114301220846D0
:101E400010439107086300BF70477047B948007896
:101E5000704700B5B848B94908604C20B8490880B7
:101E6000B848B74920390882B748B8494880B848C7
:101E7000B8490880B648193048802220488181201E
:101E800080000882B4484882B4480883B2481130C0
:101E90004883B348AF492031888041200001B149CF
:101EA0008880B148C880B0481030C881AE480882E8
:101EB0004882801C8882AC480B30C882FF204630A4
:101EC0000883AA4848835920A9490880A948A849F5
:101ED0002031088043204880A748A5494882D52062
:101EE000A34920318880FF20D3300881A34848814E
:101EF000A3488881A348A4490880A4489049603930
:101F000048800846C0881021884310308C496039C9
:101F1000C88098480A3808819D48894940394880D6
:101F20008848874920394882082085496039488196
:101F30007F4800888E49403908827C48008895494E
:101F40000880FFF783FF002802D0302081490883F2
:101F500000BD01460A46C80F8018C005000E704734
:101F6000F0B58DB00446002500268B4860628B4892
:101F7000A0628B4860618B48E0628B4820608B4890
:101F800020628B4860608B48E0617F21090628460B
:101F900088430721090645180F210902284688436E
:101FA000052109024518FF21090428468843152107
:101FB00089044518280A000205464C355F4805602B
:101FC0005E484038006B0121890588435B494039F0
:101FD00008630846406B1F21090488430321090454
:101FE000401856494039486373480068C91288430D
:101FF0007149086008460068091388436E49086003
:1020000003E003A88655701CC6B2282EF9DB03A88E
:102010002027019028200290B8033818029A0199CD
:1020200003F0E8FE00BFFFF714FF03F041FE634931
:102030000880002003F042FE03F046FE0DB0F0BD24
:1020400070B500247F210906204688430721090630
:1020500044180F210902204688430521090244182B
:10206000FF21090420468843152189044418200AC9
:10207000000204464C343148046030484038406B1C
:102080001F21090488430321090440182B494039C2
:10209000486308060068C008C000090608600520FB
:1020A0000007008980088000401C0521090708817D
:1020B000084600890821884308300521090708815E
:1020C0000846008A0F2109028843401805210907A4
:1020D00008823B480068002800D100BF00BFFFF71E
:1020E000B8FE3848056F2878002804D036480088A4
:1020F00013496039C880012003F08CFD70BD0120B8
:102100000C490870302013490883704700200949A2
:10211000087012480F49088370470000A08601002C
:10212000087F040020000050008000405602080094
:102130004A030800348000204C055407800000400A
:10214000602C00507F7F0000AC290000002200506E
:1021500009090000002400502204000030D00000D3
:10216000EE110000002500502E0200004420000067
:10217000402800500D95000002420000E4DC000001
:102180001092000053780000002A00508B100000CD
:102190009DD50000002600501F1E0020251E002097
:1021A0002B1E0020311E0020271E00204B1E002069
:1021B000291E0020531F0020000200407804080060
:1021C00008800020E001002052040800F0B585B02E
:1021D00000240CE0002507E0002128206043FA4A93
:1021E0008018AA0081506D1C0A2DF5DB641C042C9C
:1021F000F0DBFEF7E7FC0021F44A11605160002497
:1022000042E000253CE00120A84080B2029060003E
:10221000EF49085A02990840002800D132E02820EE
:102220006043E9494018A9004058401C002803D1E8
:102230000194009500BE00BF28206043E249401889
:10224000A9004058002800D119E028206043DE4949
:102250004018A9004658F7172A463046394603F079
:1022600071FE22010391049003F06CFED74B1A68B3
:102270005B6810431943D54A1060516000BF6D1C64
:102280000A2DC0DB00BF641C042CBADB05B0F0BD16
:10229000FFB585B004460D462A4601260027304684
:1022A000394603F04FFE22010391049003F04AFEE9
:1022B000C64B1A685B6810401940002358405940CB
:1022C000084300D100BE032C00D104246001C149A1
:1022D0004018029069000298801D08180190089922
:1022E000079801430198018009B0F0BDF0B585B0B1
:1022F00004460D462A46012600273046394603F09B
:1023000021FE22010291039003F01CFEAF4B1A68DC
:102310005B6810401940002358405940084300D1E1
:1023200000BE032C00D104246001AA49401801908A
:102330000198001D00900120A84081B20098018002
:1023400005B0F0BDF0B585B004460D462A4601261D
:1023500000273046394603F0F5FD22010291039033
:1023600003F0F0FD994B1A685B6810401940002398
:1023700058405940084300D100BE032C00D104242A
:1023800060019449401801900198801C0090012040
:10239000A84081B20098018005B0F0BDFFB583B0C0
:1023A00006460F463A46012400252046294603F0FA
:1023B000C9FD32010191029003F0C4FD834B1A68FC
:1023C0005B6810401940002358405940084300D131
:1023D00000BE0C98002804D039463046FFF7B2FF03
:1023E00003E039463046FFF781FF39463046069B09
:1023F000059AFFF74DFF07B0F0BDF7B586B004466C
:1024000001270020079A05903846059903F09AFDA8
:1024100022010391049003F095FD6C4B1A685B68F0
:1024200010401940002358405940084300D100BED5
:10243000002C01D1002000E0601E029002984000B4
:10244000644970314518012C02D10798083000E02A
:102450000798C6B200200190288801900121B14060
:102460000198884301900898B04001990843019071
:102470000198288009B0F0BDFEB504460D462A46F5
:10248000012600273046394603F05CFD2201019108
:10249000029003F057FD4D4B1A685B6810401940DD
:1024A000002358405940084300D100BE032C00D1FE
:1024B00004246001474940180090009800880121D9
:1024C000A9400840002801D00120FEBD0020FCE703
:1024D000FFB585B005460E4614463246012700205A
:1024E00004903846049903F02DFD2A0102910390CF
:1024F00003F028FD354B1A685B6810401940002333
:1025000058405940084300D100BE33A000680190F4
:10251000324880892246133AFF2101319140884395
:102520000F99002901DD012200E000222146133924
:10253000FF2301338B40D907C90F002901D00021A7
:10254000AEE02346133BFF2101319940022319409D
:10255000002901D00121A3E02346133BFF210131D3
:10256000994004231940002901D0022198E0234614
:10257000133BFF210131994008231940002901D064
:1025800003218DE02346133BFF21013199401023A5
:102590001940002901D0042182E02346133BFF218A
:1025A0000131994020231940002901D0052177E00D
:1025B0002346133BFF210131994040231940002954
:1025C0000ED006216CE0000020900020C09000207A
:1025D000C06400200030005001090F1900140050A1
:1025E0002346133BFF2101319940802319400029E4
:1025F00001D0072154E02346133BFF2101319940CC
:10260000FF2301331940002901D0082148E0234667
:10261000133BFF210131994001235B02194000293E
:1026200001D009213CE02346133BFF2101319940B1
:1026300001239B021940002901D00A2130E02346E2
:10264000133BFF21013199400123DB02194000298E
:1026500001D00B2124E02346133BFF210131994097
:1026600001231B031940002901D00C2118E0234647
:10267000133BFF210131994001235B0319400029DD
:1026800001D00D210CE02346133BFF21013199407D
:1026900001239B031940002901D00E2100E00F21E6
:1026A0008A401043FB49888108468089800980015F
:1026B0000F990843F74988810846008A2246133A51
:1026C000FF210131914088431146FF2201328A40A7
:1026D000D107C90F002901D00022A1E02246133AF8
:1026E000FF210131914002221140002901D0012235
:1026F00096E02246133AFF21013191400422114015
:10270000002901D002228BE02246133AFF21013139
:10271000914008221140002901D0032280E0224686
:10272000133AFF210131914010221140002901D0BC
:10273000042275E02246133AFF2101319140202204
:102740001140002901D005226AE02246133AFF21F8
:102750000131914040221140002901D006225FE062
:102760002246133AFF210131914080221140002975
:1027700001D0072254E02246133AFF210131914053
:10278000FF2201321140002901D0082248E02246F0
:10279000133AFF21013191400122520211400029D8
:1027A00001D009223CE02246133AFF210131914039
:1027B000012292021140002901D00A2230E0224673
:1027C000133AFF21013191400122D2021140002928
:1027D00001D00B2224E02246133AFF21013191401F
:1027E000012212031140002901D00C2218E02246D8
:1027F000133AFF2101319140012252031140002977
:1028000001D00D220CE02246133AFF210131914004
:10281000012292031140002901D00E2200E00F2274
:102820000E99914008439B4908820846008A224637
:10283000133A012191408843114601228A40D10771
:10284000C90F002901D0002293E02246133A01214A
:10285000914002221140002901D0012289E0224644
:10286000133A0121914004221140002901D0022293
:102870007FE02246133A01219140082211400029AD
:1028800001D0032275E02246133A01219140102223
:102890001140002901D004226BE02246133A0121A5
:1028A000914020221140002901D0052261E02246FA
:1028B000133A0121914040221140002901D0062203
:1028C00057E02246133A012191408022114000290D
:1028D00001D007224DE02246133A01219140FF2208
:1028E00001321140002901D0082242E02246133A69
:1028F00001219140012252021140002901D00922F8
:1029000037E02246133A0121914001229202114000
:10291000002901D00A222CE02246133A01219140DD
:102920000122D2021140002901D00B2221E02246CF
:10293000133A01219140012212031140002901D0D4
:102940000C2216E02246133A012191400122520343
:102950001140002901D00D220BE02246133A01213B
:102960009140012292031140002901D00E2200E083
:102970000F2208999140084346490882204613389F
:102980004000401800888009800101A9495D89192B
:1029900008432146133949003E4A8918088002211C
:1029A000204600F042FA00BFE106C90E012088402F
:1029B0003949086000BF09B0F0BD01463548008ABA
:1029C0000A46133A01239340184001239340DA0743
:1029D000D20F002A01D0002298E00B46133B0122BF
:1029E0009A4002231A40002A01D001228EE00B46B1
:1029F000133B01229A4004231A40002A01D00222EC
:102A000084E00B46133B01229A4008231A40002A17
:102A100001D003227AE00B46133B01229A40102397
:102A20001A40002A01D0042270E00B46133B012219
:102A30009A4020231A40002A01D0052266E00B4666
:102A4000133B01229A4040231A40002A01D006225B
:102A50005CE00B46133B01229A4080231A40002A77
:102A600001D0072252E00B46133B01229A40FF237C
:102A700001331A40002A01D0082247E00B46133BDD
:102A800001229A4001235B021A40002A06D0092243
:102A90003CE000000014005000E100E00B46133B56
:102AA00001229A4001239B021A40002A01D00A22E7
:102AB0002CE00B46133B01229A400123DB021A4013
:102AC000002A01D00B2221E00B46133B01229A4041
:102AD00001231B031A40002A01D00C2216E00B46EA
:102AE000133B01229A4001235B031A40002A01D0C4
:102AF0000D220BE00B46133B01229A4001239B035E
:102B00001A40002A01D00E2200E00F221041C0B26C
:102B1000704710B5E04A128A0446133C0123A340D3
:102B20009A43234601249C40E307DB0F002B01D08E
:102B3000002493E00446133C0123A34002242340D5
:102B4000002B01D0012489E00446133C0123A3405B
:102B500004242340002B01D002247FE00446133CD0
:102B60000123A34008242340002B01D0032475E057
:102B70000446133C0123A34010242340002B01D022
:102B800004246BE00446133C0123A340202423408B
:102B9000002B01D0052461E00446133C0123A3402F
:102BA00040242340002B01D0062457E00446133C68
:102BB0000123A34080242340002B01D007244DE0B3
:102BC0000446133C0123A340FF2401342340002B7F
:102BD00001D0082442E00446133C0123A340012411
:102BE00064022340002B01D0092437E00446133C43
:102BF0000123A3400124A4022340002B01D00A2476
:102C00002CE00446133C0123A3400124E4022340AA
:102C1000002B01D00B2421E00446133C0123A340E8
:102C2000012424032340002B01D00C2416E0044689
:102C3000133C0123A340012464032340002B01D053
:102C40000D240BE00446133C0123A3400124A403FC
:102C50002340002B01D00E2400E00F240B46A3409C
:102C60001A438D4B1A8210BD8B49C9890346133B09
:102C700001229A4091431A4601239340DA07D20F6A
:102C8000002A01D0002393E00346133B01229A401F
:102C900002231A40002A01D0012389E00346133B96
:102CA00001229A4004231A40002A01D002237FE027
:102CB0000346133B01229A4008231A40002A01D000
:102CC000032375E00346133B01229A4010231A4068
:102CD000002A01D004236BE00346133B01229A40F3
:102CE00020231A40002A01D0052361E00346133B4C
:102CF00001229A4040231A40002A01D0062357E0BF
:102D00000346133B01229A4080231A40002A01D037
:102D100007234DE00346133B01229A40FF23013372
:102D20001A40002A01D0082342E00346133B012247
:102D30009A4001235B021A40002A01D0092337E0A0
:102D40000346133B01229A4001239B021A40002AAA
:102D500001D00A232CE00346133B01229A400123B1
:102D6000DB021A40002A01D00B2321E00346133B6B
:102D700001229A4001231B031A40002A01D00C2390
:102D800016E00346133B01229A4001235B031A40DD
:102D9000002A01D00D230BE00346133B01229A4089
:102DA00001239B031A40002A01D00E2300E00F23C9
:102DB00001229A401143384AD18170470246133AA2
:102DC0009200364B9950704770B504462046FFF785
:102DD0004BFF20461338800030490D58002D01D09C
:102DE000A84708E000BFE106C90E012088402C4931
:102DF000086000BF00BF70BD10B51320FFF7E4FFEF
:102E000010BD10B51420FFF7DFFF10BD10B5152061
:102E1000FFF7DAFF10BD10B51620FFF7D5FF10BD84
:102E200010B51720FFF7D0FF10BD10B5002819DA34
:102E30001C4A03071B0F083B9B089B00D2588307C3
:102E4000DC0EFF23A3409A438B071B0E8407E40E7E
:102E5000A3401A43134B0407240F083CA408A40002
:102E60001A5118E0104A03231B02D21883089B0052
:102E7000D2588307DC0EFF23A3409A438B071B0E17
:102E80008407E40EA3401A43074B032424021B19B2
:102E90008408A4001A5110BD00140050C8900020EE
:102EA00080E200E01CED00E000E100E010B500244D
:102EB00028E000BFE7490868C1B2E748006901702F
:102EC000E548C068401EE449C86008460069401CE7
:102ED00008610846C068002814D10021DE4801615D
:102EE0000020DC494968490849000143D94A51603A
:102EF00000BFD9484469002C03D000214161002063
:102F0000A04706E000BFD3494869C107C90F00299F
:102F1000CFD100BF10BD10B500240020CE49C8603D
:102F20000021CD480161CB48808840084000C94954
:102F30008880C9484469002C03D0002141610120E8
:102F4000A04710BD10B5002426E0C34949680878A1
:102F5000C049086000BFC0480068401EBE49086004
:102F600008464068401C486008460068002813D1A5
:102F7000486000BFB74949680222914342001143AB
:102F8000B44A516000BFB4488468002C03D00020CC
:102F9000B1498860A04709E000BFAE496031898B24
:102FA00002221140481000BF0028CED100BF10BD42
:102FB00000BFA8494869C107C90F002901D10120F4
:102FC00070470020FCE770B504460D46A148808993
:102FD000802188439F4988810720088100208880BC
:102FE000084680898021884380309A498881002062
:102FF00088808880E0B208800846858180898021A9
:103000008843944988810D2001218140934A1160B1
:1030100000BF012100F0E4F80D20012181408F4A1A
:10302000803A116000BF00BF012181408C4A1160CD
:1030300000BF0020884908760021874801610020F0
:103040008549C8604860086070BD70B504460D468B
:1030500029462046FFF7B7FF70BD22207D49086151
:10306000704700B5FFF7F9FF00BD38B5012400BF78
:1030700000BF78494869402101408909002907D0EB
:1030800000BF74494869202101404909002901D144
:10309000002414E000206F490861009002E00098CD
:1030A000401C0090FF215F3100988842F7D3FFF762
:1030B0007FFF002802D1FFF7D4FF002400BF00BF2C
:1030C000204638BD10B5FFF7D0FF10BD30B5012048
:1030D000002102460B46C4018D012C4355012C43AF
:1030E0005D002C435B4D2C6100BF00BF00BF594900
:1030F00048692021014049090029F7D000BF5549FE
:1031000048694021014089090029EFD030BD00B550
:10311000FFF7DCFF00BD30B54F4BD96018615A6135
:1031200001234C4C64689C431C434A4D6C6000BFB7
:1031300030BD70B504460D46164632462946204637
:10314000FFF7E9FF70BD70B504460D4616464248CC
:10315000056044608660FFF7F5FE3F484068002840
:103160000AD001203B4949680222914342001143A1
:10317000384A516000BF00BF70BD70B504460D46AF
:103180001646324629462046FFF7DDFF70BD10B5D2
:10319000304880680407240F012C1CD0022C15D065
:1031A000042C10D00C2C14D12B48007E012809D1FE
:1031B00000BF2849486980210140C909002901D080
:1031C000FFF7A9FE06E0FFF771FE03E0FFF7BAFE86
:1031D00000E000BF00BF10BD10B5FFF7D8FF10BD65
:1031E00010B5002819DA1F4A03071B0F083B9B087C
:1031F0009B00D2588307DC0EFF23A3409A438B0722
:103200001B0E8407E40EA3401A43164B0407240F39
:10321000083CA408A4001A511AE0104A803A03237B
:103220001B02D21883089B00D2588307DC0EFF23B1
:10323000A3409A438B071B0E8407E40EA3401A4356
:10324000064B803B032424021B198408A4001A5156
:1032500010BD0000001100503880002080E100E027
:1032600080E200E01CED00E010B501239B03034366
:103270000B43584C238001239B0303430124234326
:103280000B43544C238009231343638010BD5149E1
:1032900009880F22920191430207920D11434D4A72
:1032A0001180704700204B49088070474A494948BF
:1032B000008802229043801C464A108000BF0846C6
:1032C000491E002805D043480088022210400028EB
:1032D000F5D100203F4A10811046408970470AE02E
:1032E00000BF00BF00BF00BF00BF00BF00BF00BFE6
:1032F00000BF00BF00BF0146401E0029F0D170474B
:1033000070B50446022251024800FFF7ADFF1420B9
:10331000FFF7E5FF002C03D00920FFF7B8FF02E01C
:103320000720FFF7B4FFFFF7C1FF05460120FFF7B5
:10333000D6FF022200219002FFF796FF002C03D057
:103340000920FFF7A4FF02E00720FFF7A0FFFFF727
:10335000ADFF06467519FFF7A5FF284670BDF8B505
:103360001E481C4908801420FFF7B9FF01204002C5
:1033700018498880C88008460088012109038843CD
:1033800040181449088008460088012189028843B2
:1033900010490880FFF78AFF0346DD1FFF3DFA3D15
:1033A0000C48008801218902884340180949088097
:1033B000FFF77CFF0446E61FFF3EFA3E680001214E
:1033C00049020F1A7000081A009002498F80009875
:1033D000C880F8BD00150050A0860100014800001B
:1033E00008B5892005210907088101204003874984
:1033F000088005200007008880218843803005214F
:1034000009070880084600888008800008808048F6
:10341000008A02218843801C7D490882FEF719FD3D
:1034200002F096FD02F09AFD0020009004E068464C
:103430000088401C81B20091684600889128F6DB24
:1034400008BD08B500207349088048807248734958
:10345000C880FF20D230088100206E49C880C32078
:103460006E49488008206E4908800020009004E0E2
:1034700068460088401C81B2009168460088912807
:10348000F6DB0020009004E068460088401C81B212
:103490000091684600889128F6DB0020009004E047
:1034A00068460088401C81B20091684600889128D7
:1034B000F6DB08BD5B4B5880998001221A8000BF63
:1034C000584AD288D207D20F002AF9D17047F0B5F6
:1034D000FFB0FFB091B0054603A90291891C01918C
:1034E0004B48018AFFA8C163FFF77AFF494801886A
:1034F000FFA8816347484188FFA841634748C188C6
:10350000FFA8016345480189FFA8C1624148C188FD
:10351000FFA881623F48418BFFA841624248418831
:10352000FFA801623D484188FFA8C161FFF789FFFC
:103530000021FFA80161002635E0FF2103A8FFF765
:10354000B9FF0021FFA881610027002425E002982F
:10355000005DC007C00F019A115DC907C90F48403F
:10356000FFA94861FFA88169481CC2B2FFA8826117
:10357000406988403843C7B2FFA88069082809D14C
:10358000FFA80169481C82B2FFA802616F540021A4
:10359000816100272046103084B2FF2080008442E1
:1035A000D5DD701C86B2022EC7DBFFA8C06B1849A0
:1035B000088200201A490880FFA8806B15490880FE
:1035C000FFA8406B4880FFA8006B1449C880FFA883
:1035D000C06A0881FFA8806A0E49C880FFA8406AB7
:1035E0004883FFA8006A10494880FFA8C0690B49BA
:1035F00048800520000700888021884305210907AD
:1036000008807FB07FB011B0F0BD00000002004024
:10361000E0300050002400508080000060280050FE
:103620002020005000350050002600506D480078E2
:10363000002807D10920012181406B4A116000BF99
:10364000002070470020C043FBE770B50025FEF75F
:10365000AFFB0520000780881021084000110028DA
:1036600009D0012501206149888008460088802111
:1036700088435E490880012D06D15D480068002816
:1036800002D05B480468A04770BDFFB581B0044616
:103690000D4616460520000780881021884310300B
:1036A000052109078880002050490881F0B2488030
:1036B000002010E0C2002146D140CFB241004B4A69
:1036C00089184F81C2002946D140CFB24100474AF4
:1036D00089184F82401C0428ECDB4448C089032130
:1036E000090288432104890F090208433F49C88120
:1036F0000846C08A0321090288432904890F090268
:1037000008433A49C882012088800920012181406C
:10371000384A116000BF04988006800E802108435B
:10372000324908800121092000F023F82D48007853
:1037300040084000401C2B490870092001218140AD
:10374000294A803A116000BF05B0F0BD00B5254898
:1037500000784008400023490870012023498880F0
:10376000084600888021884320490880FFF75EFFD3
:1037700000BD10B5002819DA1F4A03071B0F083BCC
:103780009B089B00D2588307DC0EFF23A3409A437B
:103790008B071B0E8407E40EA3401A43164B040745
:1037A000240F083CA408A4001A511AE00E4A803ADB
:1037B00003231B02D21883089B00D2588307DC0E18
:1037C000FF23A3409A438B071B0E8407E40EA340FC
:1037D0001A43054B803B032424021B198408A400D0
:1037E0001A5110BD5480002080E100E0000100501B
:1037F0005880002080E200E01CED00E010B5654A32
:1038000051781078FEF772FD10BD10B5614A5178FD
:103810001078FEF797FD10BDF8B504460D46164624
:103820001F4620785B49087060784870FFF7EDFF0D
:103830000520000780880121C9028843401805211E
:103840000907888054480088400840005249088091
:1038500008460088FF2181318843E90108434E4929
:1038600008800846008840218843B10108434A493E
:1038700008800846008804218843B9000843464967
:1038800008800846008802218843069949000843B9
:103890004149088008460088012189038843079927
:1038A000890308433C49088008460088182188435A
:1038B0000899C9000843384908800846008840082C
:1038C0004000401C0880F8BD334909884908490078
:1038D000314A118011460988FF2281329143C20189
:1038E00011432D4A11801146098849084900491C95
:1038F0001180704710B528480088400840002649CC
:1039000008800520000780880121C902884305211D
:10391000090788801F4A51781078FEF713FD10BD03
:103920001D480088400840001B490880704710B5BA
:10393000014600200022184B1B88FF2481342340BD
:10394000DA11012A02DD0B0C134CA380124C6180AA
:1039500000BF114B1B880124640323405B13002B21
:10396000F7D001230C4CE380012A02DD23469B881B
:103970001804094B5B88181810BD70B50446002563
:10398000FFF73CFF2046FFF7D2FF0546FFF73DFF5C
:10399000284670BDDC90002000120050FC4A1060E8
:1039A000FC4A1160704710B50120FFF78DFF05201C
:1039B0000002FFF7E2FFC0B210BD10B5002407E01F
:1039C000FFF7F1FFC007C00F002800D110BD641C35
:1039D000F1488442F4D30020C043F7E770B5FFF705
:1039E000ECFF0546002D01D0284670BD0020FFF7F2
:1039F0006BFFFFF703FF9F20FFF799FF0020FFF702
:103A000096FF04040020FFF792FF00020443002009
:103A1000FFF78DFF0443FFF7F8FE2046E5E770B59A
:103A2000FFF7DCFF054600242EE014206043DB494D
:103A3000085814216143D94A89184968084014215B
:103A4000614389184968294088421BD120B2D44972
:103A5000088014206043114640188068CC490860F3
:103A60001420604311464018C068CA490860CC4918
:103A70000020085E1421484311464018C9490860D7
:103A800060B270BD601C84B2042CCEDB0020C5493E
:103A90000860401EF5E770B5FFF78FFF00281CD1C6
:103AA000FFF712FF002516E00620FFF766FF00264D
:103AB0000DE0FFF778FF0446E007C00F002805D1AE
:103AC00002202040002801D0002070BD761CB248A2
:103AD0008642EED36D1C322DE6D30020C043F4E7BE
:103AE00070B5FFF76AFF00281CD1FFF7EDFE002537
:103AF00016E05020FFF741FF00260DE0FFF753FFCF
:103B00000446E007C00F002805D10220204000280D
:103B100001D0002070BD761C9F488642EED36D1CFC
:103B2000322DE6D30020C043F4E770B5FFF745FF20
:103B300000281BD1FFF7C8FE002515E00420FFF781
:103B40001CFF00260CE0FFF72EFF0446E007C00F25
:103B5000002804D102202040002800D170BD761C2E
:103B60008D488642EFD36D1C322DE7D30020C04331
:103B7000F4E770B50446FFF720FF0546002D01D09D
:103B8000284670BD0120FFF79FFEFF210131214330
:103B90000846FFF7F2FEFFF710FFF2E7F7B582B035
:103BA0000E461746B8197A490968884204D97848F8
:103BB0000068851B2C4601E03D463C46FFF7FDFEB4
:103BC00001900198002802D0019805B0F0BD0220B4
:103BD000FFF77AFEFFF712FE03210906314308467C
:103BE000FFF7A5FE0020FFF76FFE002000900BE01E
:103BF0000020FFF79CFEC1B2029801700298401CA1
:103C000002900098401C00900098A842F0D3FFF763
:103C1000FCFD2046D9E7F7B50546164637465D4810
:103C20000068874202D95B48008887B2FFF7C5FE6B
:103C30000446002C01D02046FEBDFFF72CFF0446B1
:103C4000002C01D02046F7E70220FFF73DFEFFF7EA
:103C5000D5FD01225206019911430846FFF767FE80
:103C60000020FFF731FE05E028786D1CFFF75FFEAE
:103C7000781E87B2002FF7DCFFF7C7FDFFF79DFE28
:103C8000DAE770B504460D46FFF705FF002802D0BD
:103C90000020C04370BD0220FFF716FE2906214315
:103CA0000846FFF76AFEFFF788FEF3E710B5FFF757
:103CB000F2FE002802D00020C04310BD0020FFF714
:103CC00003FEC720FFF759FEFFF777FEC4B260B2CC
:103CD000F3E770B50025FFF770FE0446002C11D104
:103CE0000120FFF7F1FDFFF789FD09200003FFF731
:103CF0001EFE0020FFF71BFE0020FFF718FE85B216
:103D0000FFF783FD28B270BD70B50020044605465C
:103D1000FFF753FE0646002E17D1FFF7D5FDFFF73C
:103D20006DFD4B20FFF703FE0220FFF7CDFD0020C5
:103D3000FFF7FDFD0020FFF7FAFD002405460020F7
:103D4000FFF7F5FD0443FFF760FD2046294670BDEF
:103D5000F7B582B0049E039D0E480168284601F025
:103D60008FFF401C0B4909684843471E0020FFF79E
:103D7000ABFD07480068039D401B049EB04203D280
:103D80000348016803980E1A0196002428E00000F9
:103D9000E8900020EC900020400D0300C864002053
:103DA000E0900020E490002001982818B84202D941
:103DB000781B401C019001998AB202990819294682
:103DC000FFF729FF002803D00020C04305B0F0BD55
:103DD000019824187D1C6C4800683F18301B019026
:103DE000B442E1D32046F1E710B5FFF7E6FD044603
:103DF000002C01D0204610BD0020FFF765FDB92042
:103E0000FFF7BBFD0020F6E710B50020FFF75CFDD3
:103E1000AB20FFF7B2FD002010BD70B504465B4833
:103E20000068002801D1801F70BDFFF734FE002814
:103E300002D00020C043F7E7FFF7B5FD53490968FA
:103E4000097C884351490968097C2140084305469B
:103E5000FFF78FFEE8E710B54C490968487CFFF78B
:103E6000DCFF0446002C01D060B210BDFFF71EFF3E
:103E7000FBE7F7B50F4615462E46434800688642D5
:103E800002D94148008886B2FFF797FD0446002C0E
:103E900001D02046FEBDFFF7FEFD0446002C01D0F8
:103EA0002046F7E70220FFF70FFDFFF7A7FC0121EF
:103EB000490639430846FFF73AFD0020FFF704FDA5
:103EC00004E00098FFF733FD701E86B2002EF8DC88
:103ED000FFF79BFCFFF771FDDCE7F7B582B0049EAE
:103EE000039D29480168284601F0CAFE401C264966
:103EF00009684843471E0020FFF7E6FC2448006895
:103F0000039D401B049EB04203D2214801680398E0
:103F10000E1A019600241AE001982818B84202D916
:103F2000781B401C0190019882B229460298FFF745
:103F3000A0FF002803D00020C04305B0F0BD0198C9
:103F400024187D1C104800683F18301B0190B442B3
:103F5000E2D32046F1E77FB504460D466846457337
:103F6000047300200090019003460246014602902F
:103F700003A8FFF751FCFFF747FFFFF750FD064688
:103F8000304604B070BD0000EC900020E4900020AA
:103F9000E890002070B504460D461646012C0FD15E
:103FA00006221E491E4801F0DFFF002808D0062225
:103FB0001B49304601F01EFF06202870002070BD0E
:103FC00032462946204601F0D5FFF8E770B5154E78
:103FD000154C164DE0050088802188438030E105AE
:103FE000088000BF1248408908210840082803D0F3
:103FF0002046641E0028F5D101200E4908600622E3
:104000002946074801F0F6FE0520000700888021B8
:10401000884305210907088070BD0000383E030071
:104020005C800020D47F0000A0860100D47F0400C3
:10403000200000500080004070B50446E00264217A
:1040400001F01EFE05466D1E284670BDF8B50446FB
:10405000204601F028FD06469F480168304601F0E1
:10406000A7FC054601F026FD00900098F8BDF0B5CC
:1040700087B0002006909948406D0490FCF7FFFC43
:10408000002803D196480079022801D1002004902D
:1040900000BFFDF7D1F8002800D018E101F070FF53
:1040A000002800D113E1012006908D48C078002837
:1040B00000D10CE105200007808AC007C00F00284E
:1040C00002D00420069002E101F0AAFD002800D0F1
:1040D000FDE084488069002802D08048406D04904B
:1040E000049803907E48817804A801F04FFF0028CF
:1040F00000D1ECE07A48817804A801F0A3FD002803
:1041000000D1E4E000200290039804907648006813
:10411000AA2800D100BF00BF7448FCF7F3FF064691
:1041200000BF00BF01208007006A7149884205D2A4
:1041300000BF01208007006AC828F2D800BF012014
:104140008007006AC82801D8012002900020019051
:1041500000BF6348817804A801F018FF002800D14F
:104160000AE05F48817804A801F06CFD002800D1C6
:1041700002E00120019000BF00BF0198002800D19B
:10418000A5E00498002805D00298002802D00498E1
:10419000401E049054480068AA2800D100BF00BF08
:1041A0005448FCF7AFFF07463C46123452480078AB
:1041B000022800D1113451484089012149020840A8
:1041C0004012002802D000BF00BE00BFB81B0590FF
:1041D0003D4600BF01208007C06B800A8002059920
:1041E000084301218907C8630846C06B4449084059
:1041F000A102084301218907C8630846C06BC002B9
:10420000C00A6905084301218907C8630420069094
:104210000498002802D00498001D049032480068D9
:10422000002800D100BF00BF2F480068AA2800D195
:1042300000BF00BF0498FFF709FF32490860284813
:104240000079002801D0012000E0002001462D481F
:10425000006801F0A1FE2C49C86A80470020009048
:10426000FDF729F8002810D005200007008830212C
:1042700088433030052109070880084600888008F7
:104280008000C01C08800120009000BF00BF0121F9
:104290008907086BC9130140C90B0029F6D000BF7C
:1042A0001A480068FF21013108400028F8D0009822
:1042B000002801D0FDF77CFD01F074FE0520000709
:1042C00000898021884305210907088100BF00BFBC
:1042D000069807B0F0BD00001880002060020020A2
:1042E000C6060800A805080008800020540B00003E
:1042F000260200001D0D000054020800200000509E
:10430000FF03E0FF648000201C070800000200405B
:10431000F8B500BF01208007806B06463046FCF7E9
:1043200005FF0746D949384601F0AAFC0546D7499A
:10433000384601F0A5FC27200001441A002C00D1CA
:10434000012400BFD248456000BF00BF046000BF29
:1043500001208107096B08229143C20011438207A3
:10436000116300BFCB480660CB480068002806D028
:10437000C9480068B04202D200BF00BE00BFF8BD0D
:1043800010B50520000740898007800F00280DD058
:104390000520000740898008800005210907488121
:1043A000BE48408840084000BC49488005200007BE
:1043B000008980218843803005210907088108464B
:1043C000008A0421884305210907088200BF0520CF
:1043D0000007808A022108400028F8D001F0E8FD9B
:1043E000012080070069042108408008002802D0CD
:1043F00000BF00BE00BF00BF01208007006904218C
:10440000084080080028F7D010BD10B5A4480088E7
:10441000002848D10120A24908800820A14908802D
:104420000520000740898007800F002834D0052030
:104430000007808A042108408010002801D0FCF782
:1044400066FC964800888021884380309349088024
:10445000FF209549488004200880FDF799FC0BE077
:104460009149C9880904904A928888187D21C90019
:10447000884200D901E000BFF2E700BF05208A4969
:1044800008808A48008805210907488083480088F9
:104490008021884381490880042001218140844A89
:1044A000116000BF00BF10BD10B5FDF781FCFFF724
:1044B00067FF00207A49088005200007408A802194
:1044C0008843052109074882764800894008400052
:1044D0007449088101208007806904218843001DF8
:1044E0000907886101F06AFD042001218140704ABA
:1044F0008032116000BF01F067FD01F06BFD6D4877
:104500000068AA2800D100BF00BF1420FCF700FDFE
:10451000002069490870614840890121490208402A
:104520004012002818D065480078002814D10120D6
:104530006249087062480088C007C00F00280BD18C
:104540000120FEF7DDFE04468B208000844202D964
:1045500002205A49087000BF10BD10B5012059490A
:10456000087001F03DFD10BD10B501F03FFDFFF7F3
:10457000F4FF01205049087010BD10B501208007DC
:10458000048A8020204000280AD0FFF7E6FF49482F
:104590000068AA2800D100BF00BF1420FCF7B8FCB7
:1045A00010BD10B501F028FD10BD10B50120800729
:1045B000048A08202040002823D001F023FD012098
:1045C0008107096849004908C20711438207116041
:1045D00000BF00BF00BF012189070868C10F002983
:1045E000F8D100BF2A4980310868C1B2002905D03E
:1045F000012027498031086000BF00BF04202E49F8
:10460000087031480078042804D030480068401C05
:104610002E49086010BD70B52D4800888506AD0E86
:104620002C4844682C48066F3078002802D1284670
:1046300001F0EEFC29480089FF21013108400012F9
:1046400000280AD080202040002806D0E007C00FB4
:10465000002802D0284601F0E1FC802020400028FC
:1046600006D0E007C00F002802D0032012490870CE
:104670000120C0032040002807D0FF200130204047
:10468000002802D002200C49087070BD71020000A1
:10469000400000406880002064800020200000501E
:1046A0007080002000330050001600506E80002003
:1046B00000E200E0088000206C8000206D80002077
:1046C0000015005072800020F09000200091002022
:1046D0000020005000020040E0010020002C0050AB
:1046E000FFB581B004460E4617466288218806232E
:1046F000384601F0BBFB0546207901F095FC288087
:104700002E7104986880284601F0C2FB05B0F0BD08
:10471000F8B504460E461746628820790002014625
:104720000C310423284801F0A1FB0546002E01D0DE
:10473000132000E0122028706F80284601F0A8FBAB
:10474000F8BD10B502460888134618701A465B1C5F
:10475000FF242402044024121C7000BF887890704B
:10476000C878D07008791071487950718879907143
:10477000072010BD10B5024600BF137854782402FC
:104780002343184600BF088090788870D078C8709E
:10479000107908715079487190798871072010BD9F
:1047A00010B500F013F810BD70B506460C4615465E
:1047B000362001F095FA022805D1E2B236232946C7
:1047C000304601F037FC70BD0D30000010B50A21F5
:1047D000584801F035FC5849362001F037FC0021DB
:1047E000362001F0A1FA10BD70B505465148018888
:1047F00004233622514801F039FB04464D4908791B
:1048000001F012FC2080A570204601F041FB70BD34
:1048100070B5054647480188122336224748401C98
:1048200001F024FB04464349087901F0FDFB208098
:1048300010222946A01C01F0DDFA204601F028FBD9
:1048400070BD70B505463B480188042336223B48BD
:10485000801C01F00BFB04463649087901F0E4FBAB
:1048600020802978A1706978E170204601F010FB62
:1048700070BD70B505462F480188042336222F48A5
:10488000C01C01F0F3FA04462A49087901F0CCFB78
:1048900020802978A1706978E170204601F0F8FA4B
:1048A00070BD70B50546234801880423362223488D
:1048B000001D01F0DBFA04461E49087901F0B4FB43
:1048C0002080A570204601F0E3FA70BD1CB519499F
:1048D000C888002101F0C0FB164801880223362257
:1048E0001648401E01F0C2FA04461249C988891CC4
:1048F00088B26A4601A901F0B5FB0E49087901F0BA
:1049000093FB2080204601F0C3FA0121362001F0FC
:104910000BFA1CBD70B504460648018801233622F7
:104920000648083001F0A2FA05462C70284601F02E
:10493000AFFA70BD748000207865002002D80000B6
:10494000F0B589B01D460521C9020691C91C059123
:10495000FE4804903620FE4948800620089000203A
:1049600007900527CD20009701903621F848801D3B
:10497000079B089A01F07CFB0646002E7ED1F44886
:10498000801D012100910190811FC88806AB022281
:10499000102101F073FB0646ED49C888ED4A10214D
:1049A00001F072FB064602A8012100910190E8493E
:1049B000C88805AB0222132101F060FB064603A85C
:1049C000092100910190E249C888E34B102201219E
:1049D00001F054FB0646E1496846007B4870684692
:1049E000407B88700A4613216846008901F04CFB21
:1049F000064602A8012100910190D549C88805AB5F
:104A00000222132101F03AFB064603A80921009176
:104A10000190CF49C888D24B1022114601F02EFBDD
:104A20000646D0496846007B48706846407B8870DF
:104A30000A4613216846008901F026FB064602A8B3
:104A4000012100910190C249C88805AB02221321BF
:104A500001F014FB064603A8092100910190BC490E
:104A6000C888C14B1022022101F008FB0646BF494D
:104A70006846007B48706846407B00E05CE08870D8
:104A80000A4613216846008901F0FEFA064602A88C
:104A9000012100910190AE49C88805AB0222132183
:104AA00001F0ECFA064603A8092100910190A849FB
:104AB000C888AF4B1022022101F0E0FA0646AD494A
:104AC0006846007B48706846407B88700A46132120
:104AD0006846008901F0D8FA064602A80121009133
:104AE00001909B49C88805AB0222132101F0C6FA48
:104AF000064603A80921009101909549C8889E4B5C
:104B00001022012101F0BAFA06469C496846007B52
:104B100048706846407B88700A46132168460089C1
:104B200001F0B2FA06468A49C888002101F094FAD9
:104B30000121362001F0F8F8012336222946904859
:104B400001F094F904462670204601F0A1F90020F6
:104B500009B0F0BDF8B507460C461D4601267C4855
:104B60000580208801F096FA794908710846007995
:104B7000FF2808D11B23DB02814AD21C89217448FB
:104B8000FFF7AEFD33E0A178714AD08801F064FAF6
:104B90006F49C988891C88B2E21C012101F074FAAE
:104BA0006B49C988091D88B2221D102101F06CFAD9
:104BB0006749C988891D88B222461432022101F052
:104BC00063FA6349C988083188B222461632022145
:104BD00001F05AFA5E49C9880A3188B22246183271
:104BE000012101F051FA0221362001F09DF8002048
:104BF000F8BDF8B506460C46174600255449087915
:104C000001F012FA2188884216D15149C988091D3C
:104C100088B2A21C012101F037FA4D48007AC00782
:104C2000C00F002809D04A48C088001D82B2002168
:104C30004748FFF76DFD00E08125002D02D0284692
:104C4000FFF768FE0020F8BDF8B50C461E460025AB
:104C500080273004000E3E490979884231D12188ED
:104C60003B48C088801C814200D1012521883848FA
:104C7000C088001D814200D1022521883448C088A7
:104C8000801D814200D1032521883148C088083029
:104C9000814200D1042521882D48C0880A308142F4
:104CA00000D10525012D0DD1208822460832012191
:104CB00001F0EAF9E079002802D0207AFFF794FDAC
:104CC000002760E0022D0ED12088224608321021F4
:104CD00001F0DAF9E079002803D020460830FFF728
:104CE00097FD00274FE0032D0ED120882246083281
:104CF000022101F0C9F9E079002803D020460830EC
:104D0000FFF79FFD00273EE0042D0ED120882246AC
:104D10000832022101F0B8F9E079002803D02046DA
:104D20000830FFF7A6FD00272DE0052D2BD12088A8
:104D300022460832012101F0A7F9E079002804D0C9
:104D400021460831C8B2FFF7ACFD1BE00229000084
:104D5000748000201865002028650020B4660020BB
:104D600038650020C766002048650020DA6600200C
:104D700058650020ED66002068650020006700206F
:104D800008D80000002721880A4A10793A4601F025
:104D900087F90020F8BDF8B505460E4617461C46B3
:104DA0002004000E03490979884201D1FFF78EFDE6
:104DB0000020F8BD7480002010B50C214E4801F091
:104DC0003FF901204C49C870087100F0D4FA4B49F2
:104DD000322001F03BF90021322000F0A5FF00F065
:104DE000DAF810BD10B5002400F025FC044620467A
:104DF00010BD10B540488078000201460E310223F4
:104E000032223F4801F032F804460120207013207E
:104E10006070204601F03CF810BD70B5054636487C
:104E20008078000201460E312C2332223448801E45
:104E300001F01CF8044628200555002129200155C1
:104E4000204601F025F870BD10B5502332220D2107
:104E50002C4801F00BF80446204600F0E4FA204606
:104E600001F016F80221322000F05EFF10BD10B5EF
:104E7000012332220D2123480B3800F0F7FF0446AE
:104E800002202070204601F003F810BD10B500F09C
:104E9000EDFB10BD70B505460E4614461A48844217
:104EA00001DD044602E0002C00D1012422463146F7
:104EB000284601F0FBF870BDF8B506460F461546CA
:104EC000252332220D210F48C01C00F0CFFF0446DD
:104ED000012020770622394620461D3000F08AFF47
:104EE0002320065565822582204600F06CFC204672
:104EF00000F0CEFFF8BD000080800020D0650020CB
:104F0000043800000E3400003075000010B501F0C8
:104F1000D3F80446344901F0D5F83448081810BDD8
:104F200070B505463248857600240EE001F0C4F8DD
:104F30000646C017000E801900120002301AC1B2D6
:104F40002B4810300155601CC4B2082CEEDB002049
:104F5000044612E01021091BA94201DD002107E0EF
:104F600001F0AAF8C117090E091809120902411A1D
:104F70001F4A1155601CC0B20446102CEADB01F038
:104F80009BF80646C017000C801900140004301A64
:104F90001749088370BD10B52421154801F050F859
:104FA00000F0EDF910BD10B51248807800020146FE
:104FB0000E3102233222104800F058FF04460D2023
:104FC00020700B4820308078002800D102E008488B
:104FD000203080786070204600F05AFF0321322094
:104FE00000F0A2FE10BD0000A0BB0D00A0860100D5
:104FF0008C800020808000201A380000F8B5074619
:105000000C4615461E462078030000F06FFE08058A
:10501000272727091B1F2327204600F0D7FB1EE068
:105020006078012802D06078002803D1204600F083
:10503000EEFB06E06078022803D12946304600F0F6
:1050400033FC0CE0204600F002FC08E0204600F0B3
:10505000FFFB04E0204600F0FCFB00E000BF00BFC7
:105060000020F8BDF8B505460C4616461F462078C8
:10507000801E030000F03AFE06041B242223212494
:10508000A178384881708078C007C00F00280BD005
:105090003548407933492039C87606223249891D7E
:1050A0003048001F00F0A6FE00F0F8FB09E0FFF713
:1050B000A0FE00212B48817003E002E001E000E047
:1050C00000BF00BF0020F8BDF8B50D4617461E46CC
:1050D00012233A463146254800F0C8FE04462846C9
:1050E00000F0DDFB002801D1207028E01D48807809
:1050F000C007C00F002820D00822A91C194810386A
:1051000000F032FF002818D116482038008B29887B
:10511000884212D10120207012482038807E6074AD
:10512000102210492039601C00F064FE0D49887877
:10513000FFF773FE00F0B7FB01E00020207020466F
:1051400000F0A6FE2078002801D1FFF752FE0020D3
:10515000F8BDF8B504460D4616461F4600F0A2FB02
:105160000020F8BDAC8000208080002018380000AE
:10517000F8B506460F461446204600F0B1FD00285B
:105180000CD1012332220D21594800F06FFE054653
:1051900001202870284600F07BFE00BF0020F8BDEB
:1051A000F8B506460C46154620780E282CD008DCAB
:1051B00001280FD0022830D003281FD00D2837D166
:1051C00023E00F2825D0102828D0112827D0122816
:1051D0002ED127E0607800280FD1222332220D2122
:1051E0004348801C00F042FE07463946284600F03E
:1051F0003EFA384600F04CFE00BF1AE06078002806
:1052000001D100F058FA14E000BF607800F090FA85
:105210000FE0607800F0CCFA0BE00AE000BF00F08D
:10522000D1FA06E06078442801D100F0CEFA00E01F
:1052300000BF00BF0020F8BDF8B507460C46154674
:105240001E46284600F04CFD022806D13004000E10
:1052500028498870204600F0ADF80020F8BDF8B568
:1052600006460C4615461F4620780A2812D12846C5
:1052700000F036FD04280CD16078002803D0607857
:1052800000F054FA05E00521284600F04DFD00F03D
:105290004EFA00E000BF00BF0020F8BDF8B506469A
:1052A0000D4614461F462946204600F09DF9002071
:1052B000F8BDF8B506460C4615461F46284600F0D0
:1052C0000FFD012808D12078002805D1FFF78AFDBD
:1052D000002801D000F06DFA0020F8BDF8B50546B1
:1052E0000C4616461F46204600F06EFA0020F8BD18
:1052F000023400008080002010B5F74800F016FF4F
:105300000523012200215002FEF7BFF910BD10B5A0
:1053100005200007808A042108408010002801D061
:10532000FBF7F5FC322000F0DBFC022822D1FFF76E
:105330009EFDEA4800780D2802D00E2817D10AE019
:105340000E20E64908700420E54908703221E5483E
:1053500000F0DEFC0BE00D20E04908700020E04981
:10536000087019223221DF4800F0A0FE00BF00BF04
:10537000FFF7C2FF10BD0D20D84908707047704775
:1053800010B51C2332223621880200F06FFD04463E
:10539000D548008820800120A070D448007AE070B1
:1053A0001022D2490A31201D00F024FD204600F0D1
:1053B0006FFD10BD10B50446CB488078FF2816D08D
:1053C000FFF7DEFF0521322000F0AEFC2088C64941
:1053D0000880607A4871062221460A31C248801D41
:1053E00000F008FDC2498878FFF717FD01E0FFF7DC
:1053F0002BFD10BD38B5002400206A461070032034
:10540000507051781078FEF7A6FD0446601C002805
:1054100004D1FF2101314802FEF7C0FA38BD10B5B2
:10542000FEF7E2FC10BD70B590B0044603210020E9
:10543000FEF791FDFFF7DEFFFFF7F1FFA7480078C9
:10544000207000206070AB48A081E08107202074AC
:10545000012060741C21E1741F2130200155A048F7
:105460000078002806D001280DD0022814D0032887
:1054700024D11AE0A048A14908601B200871084601
:105480000179E17420E09E489C4908601C20087165
:1054900008460179E17417E09448984908601A2099
:1054A000087108460179E1740EE096489349086056
:1054B0001620087108460179E17405E00021E174C5
:1054C00000208E49086000BF00BF8C480279016847
:1054D0002046143000F08EFC002130200155025D82
:1054E00089A12046313000F085FCE07C1C21081A9F
:1054F000801E46B2002E25DD0D252A4683A1684672
:1055000000F0E6FD002D1DDD28463146884201D21F
:10551000024600E00A46D5B2681CC1B2E27C2046D1
:10552000143081540922E17C491C4254E27C921CD3
:10553000014650182A46694600F05CFCE17CA81C34
:105540000818E07410B070BD70B500BFFDF707FF1C
:105550000020FDF7D5FE0546E12068434002040C1B
:10556000204670BD10B5FFF7EFFF04462012210260
:105570000843644948816948017862484175674831
:1055800000880004010E5F4801756448006800024D
:10559000010E5C48C17461480068000E5949887466
:1055A0005F480178574841745D4800880004010E47
:1055B000544801745A4800680002010E5148C173F2
:1055C00057480068000E4F49887310BD10B502227D
:1055D00000219002FDF748FE0120FDF758FEFDF77F
:1055E00065FE84B2204610BD70B505460E462846BD
:1055F00000F076FB0446032C03D0052C01D0042CCC
:105600000CD10020364908700D2034490870192249
:105610003221344800F04AFDFFF716FC70BD10B58A
:105620000123322236213F4800F020FC0446204668
:1056300000F02EFC10BD10B5002402203A4908707D
:105640002948C07802280EDA2748C078012802D1FC
:10565000FFF7E5FF00E000BF00BF2348C078401C13
:105660002149C87000E00124204610BD7047032284
:105670000A700A224A7000224A820A754A75172265
:10568000CA8208220A8310224A8300228A83642263
:10569000CA830023202253547047F8B504460D46B0
:1056A00016461F46322000F01BFB022801D1FFF7EF
:1056B000DEFB0020F8BD10B50121322000F034FBE4
:1056C000FFF790FB002806D019223221054800F090
:1056D000EDFCFFF7B9FB10BD0F530020F190002047
:1056E000F090002001C80000808000204B6700205F
:1056F000AC8000204C04000014670020F4900020CF
:105700002F6700206667002002FF0000444131340B
:105710003538302054454D504C000000FC9000209E
:105720000091002007D800000891002070477047C2
:1057300010B50446442C3AD18E480078022804D093
:1057400003280DD004281FD118E0032089490870D0
:10575000FFF708FF03223221874800F0A7FC23E06F
:1057600000208449087019223221834800F09EFCF1
:1057700082480068801C8149086015E000207F494C
:1057800008607F4908600FE07A480078401C79493A
:1057900008707A480068801C784908601922322114
:1057A000754800F083FC00BF00BFFFF74DFB10BD44
:1057B000704710B5FFF748FB192232216E4800F000
:1057C00075FC10BD704770477047704770B505464F
:1057D0006C488078000201460E311E2332226A484E
:1057E00000F044FB04460120207060700121E1704C
:1057F000102161710320A07001212171002121720B
:105800000121A171E171204600F042FB70BD7FB51E
:1058100005465EA30FCB6C460FC45A488078000241
:1058200001460E311E233222574800F01FFB04466A
:105830005A48046010226946A01C00F0DBFA0420DC
:10584000207001206070204600F022FB7FBD704771
:10585000704770B505461E2332220E214A4800F0DB
:1058600005FB04466878FFF75BFB072020700120EA
:1058700060704B48817E2177018B6182082201464E
:1058800010312046143000F0B5FA10224449A01C13
:1058900000F0B0FA204600F0FBFA70BD70470146F8
:1058A00001207047704770477047F8B507460C46AF
:1058B0001546284600F014FA01280CD101233222A3
:1058C0001146900200F0D2FA064620783070304639
:1058D00000F0DEFA00BF0020F8BD10B5044600203D
:1058E00010BD30B5044688782E4D2872002030BD9A
:1058F000F8B505460C4616461F461022A11C29483D
:105900000A3000F077FA1022A11C274800F072FA42
:105910001022A11C254800F06DFA0020F8BD70B5DA
:1059200004462148801F4D88C5822048801F8E78FC
:105930008675CD78C575002070BD70B504461A4DCA
:10594000AD1F48882883194DAD1F8E782E76C878F4
:105950006876002070BD30B504468878114D6872B5
:105960008878124DAD1FA87688780F4DAD1FA876A8
:10597000002030BDF090002001C80000FC90002005
:1059800000910020808000201438000000010203F4
:105990000405060708090A0B0C0D0E0F0C910020D8
:1059A0008C8000204B6700201A670020356700209C
:1059B000024670B54A40D30FDB0740002DD04A00A5
:1059C0002AD0010E140E000212020919400A520ACE
:1059D0008418E50104465443000A120A2E04504379
:1059E000A4194219200CC543AA18120C0125AD03B5
:1059F000521C521912047F39240400D0521C104347
:105A000001D44000491EC2B20C06C0092018401C37
:105A10004008802A02D003E0002070BD400840000A
:105A2000002900DA0020184370BD70B502464A40D4
:105A3000D50F40004A00ED0740085208002814D056
:105A4000002A12D0C40DD30D41020120C00552021C
:105A5000490A520AE41A091812187D34914201D3F6
:105A6000641C00E04900002C01DA002070BD002316
:105A7000914201D3891A0343400849000028F7D115
:105A800000290AD0914202D10121C90705E09142C3
:105A900001D2012101E00121C943E005C0184019EC
:105AA00000F04CF870BD10B500229623114600F0AE
:105AB0004DF810BD410040020122400AD205090EF6
:105AC00080187F2901DA00207047962903DC96228E
:105AD000511AC8407047963988407047C20FD207A4
:105AE000400040080BD0C10D0723DB01C91840025C
:105AF0000905400A1143C2084007114370470020BE
:105B000001467047CB0FDB07490010B54908024634
:105B10000A4307D00A0D07240903E401090B121BED
:105B2000002A01DC002010BDC900440F0C43C10055
:105B3000E018D205801800F001F810BD002904DA41
:105B4000401C490001D140084000704770B4002457
:105B5000050C05D11024000402D1002921D0112404
:105B6000050E01D100020834050F01D10001241DEA
:105B7000850F01D18000A41C002801DB4000641CBB
:105B8000002908D020252E1B0D46F540A14000D04D
:105B900001212943084301061B1B000ADB1D02D516
:105BA000002070BC7047DB05181880180029F8DA4F
:105BB000401C4900F5D170BC40084000704700000F
:105BC000064C0125064E05E0E36807CC2B430C3C50
:105BD00098471034B442F7D3FAF736FC80660020B9
:105BE000B066002003B40148019001BD551B0200BE
